:100000000C9472000C9486000C9486000C9486006C
:100010000C9486000C9486000C9486000C94860048
:100020000C9486000C9486000C9486000C94860038
:100030000C9486000C9486000C9486000C94860028
:100040000C9486000C9486000C9486000C94860018
:100050000C9486000C9486000C9486000C94860008
:100060000C9486000C9468020C9486000C94860014
:100070000C9486000C9486000C9486000C948600E8
:100080000C9486000C9486000C9486000C948600D8
:100090000C9486000C9486000C9486000C948600C8
:1000A0000C9486000C9486000C9486000C948600B8
:1000B0000C9486000C9486000C9486000C948600A8
:1000C0000C9486000C9486000C9486000C94860098
:1000D0000C9486000C9486000C9486000C94860088
:1000E0000C94860011241FBECFEFD1E2DEBFCDBF3E
:1000F00000E00CBF22E0A0E0B2E001C01D92A935F3
:10010000B207E1F70E941A030C9412060C94000047
:100110001092C50087E68093C40086E08093C200F9
:1001200088E98093C10008959091C00095FFFCCFAD
:100130008093C60008958091C00087FFFCCF809116
:10014000C6000895FC019091C00097FFFCCF9091EC
:10015000C6009193992329F09A3011F09D3099F7B8
:1001600011929E2F981B892F0895482F80E06623B7
:10017000B9F030E0E42FF92F2091C00027FFFCCF29
:100180002091C6002193222329F02A3011F02D302E
:1001900099F71192E41B8E0F3F5F3613EBCF089552
:1001A0000895FC012081222351F031969091C000E6
:1001B00095FFFCCF2093C60021912111F7CF089520
:1001C0008DB18FEF8DB9E1E0F1E09081808392EA0B
:1001D0009093900089E1809391009093A000809388
:1001E000A1008FEA9BEB90939700809396009093E9
:1001F000A7008093A6000895109225011092240173
:10020000109220018DE08093210183E294EF90937E
:100210002901809328010895E4E2F1E08081918131
:100220001182108268E07DE30E94510488EE93E021
:100230009C01629FC001639F900D729F900D1124DD
:1002400008956817790734F4481759070CF0089592
:10025000CA010895CB0108952F923F924F925F9269
:100260006F927F928F929F92AF92BF92CF92DF92C6
:10027000EF92FF920F931F93CF93DF93CDB7DEB72B
:1002800060970FB6F894DEBF0FBECDBF7C01098327
:100290001A836F83788789819A81AF80B884F70148
:1002A00026853785318B208B84889588978A868A26
:1002B000468D578D4115510509F0D3C0048515852C
:1002C000081B190B17870687F7010288F389E02DB1
:1002D000FA87E9879F0136952795369527953695B4
:1002E0002795A5ECB0E20E946504929582958F70E7
:1002F00089279F708927089F6001099FD00C189F4C
:10030000D00C1124F701808D918DC80ED91EFBE60B
:10031000CF16FFEFDF060CF4ADC086E9C816D10496
:100320000CF4C8C0412C512C36E1632E33E4732EFB
:1003300066E9C62ED12CF701D18EC08EFBE6AF1632
:10034000FFEFBF060CF0A9C02AE6A22EBB24BA9488
:1003500022242394312C452B11F0212C312C6401C3
:100360009CEDC91A95E0D90AB801110F880B990BB9
:100370000E941905F70120813181428153810E9439
:10038000A50520E034EC48EB56E40E9475046B8729
:100390007C878D879E87F70124813581468157812F
:1003A000C301B2010E94A5059B01AC016B857C8550
:1003B0008D859E850E9475042B013C018827992715
:1003C000821993098A259B25820D931D69857A855B
:1003D0000E94510480E090E00E941705F7012085FB
:1003E0003185428553850E94A5059B01AC01C3015F
:1003F000B2010E9475040E94E804C616D70644F4B0
:10040000940124523A4F6B01261737070CF450C061
:10041000F701248D358D828D938D8C159D052CF4DF
:10042000C6012C153D050CF441C0F701958B848B5A
:1004300060960FB6F894DEBF0FBECDBFDF91CF91AF
:100440001F910F91FF90EF90DF90CF90BF90AF90F2
:100450009F908F907F906F905F904F903F902F90E4
:100460000895F701248535858C01021B130B17872E
:1004700006872ACF412C512C76E1672E73EC772E1C
:10048000EAE6CE2EDD24DA94F701D18EC08EFBE6AB
:10049000AF16FFEFBF060CF457CF86E9A816B104DC
:1004A0000CF456CF96E9A92EB12C52CFC901BDCF7D
:1004B0006901AECFB6010D2C000C880B990B4F874C
:1004C000588B0E9419052B013C014F855889DCCFC0
:1004D0001F920F920FB60F9211240BB60F922F930B
:1004E0003F934F935F936F937F938F939F93AF93BC
:1004F000BF93EF93FF93809124019091250168E0D1
:100500007DE30E94510428EE33E0629FC001639FA7
:10051000900D729F900D11241092250110922401CC
:10052000909314028093130290934C0280934B0299
:10053000E1E2F2E08091C00087FFFCCF8091C6002D
:100540008193882329F08A3011F08D3099F7108239
:1005500080912A0290912B0290932D0280932C027D
:10056000209128023091290230932B0220932A02F5
:100570006091220270E0762F662720912102622B83
:100580007093290260932802681B790B80E090E049
:100590000E94170520E030E040E05FE30E94A505DF
:1005A0000E94E10470932F0260932E028091320228
:1005B000909133029093350280933402209130025F
:1005C0003091310230933302209332026091240241
:1005D00070E0762F662720912302622B7093310200
:1005E00060933002681B790B80E090E00E94170551
:1005F00020E030E040E05FE30E94A5050E94E104B6
:10060000709337026093360281E080933802FF9145
:10061000EF91BF91AF919F918F917F916F915F917A
:100620004F913F912F910F900BBE0F900FBE0F90E7
:100630001F9018950F931F93CF93F8941092C500B5
:1006400087E68093C40086E08093C20088E98093A7
:10065000C10010923802109200028DE580932502AD
:1006600080932402809323028093220280932102AC
:10067000279A80E885B993E0E1E2F2E08091C0003A
:1006800087FFFCCF8091C6008193882329F08A30B0
:1006900011F08D3099F71082915071F72FEF81EEA4
:1006A00094E0215080409040E1F700C0000080E0DD
:1006B00090E0A0EAB1E48093390290933A02A093CB
:1006C0003B02B0933C0280E090E0A0EAB0E480936B
:1006D0003D0290933E02A0933F02B093400280936C
:1006E000410290934202A0934302B093440220E45B
:1006F00031E0309346022093450226E535E43093FD
:100700005402209353022EE633E73093560220938F
:10071000550221E030E0309358022093570240E028
:1007200050E060E771E4409301025093020260934D
:100730000302709304028093050290930602A09333
:100740000702B09308028093090290930A02A093D3
:100750000B02B0930C0280EF90E090930E02809316
:100760000D0286E09AE490931C0280931B028EE1B6
:1007700098E790931E0280931D021092200210921F
:100780001F02109227021092260210922902109244
:100790002802109231021092300210922F02109211
:1007A0002E0210923702109236028DB18FEF8DB962
:1007B000909101018093010192EA9093900089E168
:1007C000809391009093A0008093A1008FEA9BEB0F
:1007D00090939700809396009093A7008093A60033
:1007E00080EC9DE590939900809398009093A900E8
:1007F0008093A80015B8789481E080930002C0E847
:1008000080910002811106C080E090E0CF911F919D
:100810000F91089580913802882391F30091280266
:100820001091290220912A0230912B0240912C0232
:1008300050912D0260912E0270912F0289E392E077
:100840000E942C010091300210913102209132025D
:10085000309133024091340250913502609136025A
:100860007091370281E092E00E942C0180914D024C
:1008700090914E0290939900809398008091150278
:10088000909116029093A9008093A800C5B98FE3B8
:100890009CE90197F1F700C0000015B810923802EA
:1008A000AFCFAA1BBB1B51E107C0AA1FBB1FA617D6
:1008B000B70710F0A61BB70B881F991F5A95A9F709
:1008C00080959095BC01CD010895A29FB001B39F82
:1008D000C001A39F700D811D1124911DB29F700D49
:1008E000811D1124911D08955058BB27AA270E94ED
:1008F0008C040C946B050E945D0538F00E94640521
:1009000020F039F49F3F19F426F40C945A050EF4A4
:10091000E095E7FB0C945405E92F0E947C0558F301
:10092000BA17620773078407950720F079F4A6F5D4
:100930000C949E050EF4E0950B2EBA2FA02D0B0102
:10094000B90190010C01CA01A0011124FF27591B14
:1009500099F0593F50F4503E68F11A16F040A22F1A
:10096000232F342F4427585FF3CF4695379527958B
:10097000A795F0405395C9F77EF41F16BA0B620B8A
:10098000730B840BBAF09150A1F0FF0FBB1F661FD1
:10099000771F881FC2F70EC0BA0F621F731F841F14
:1009A00048F4879577956795B795F7959E3F08F03A
:1009B000B0CF9395880F08F09927EE0F97958795FC
:1009C00008950E94E8046894B1110C949F0508955D
:1009D0000E94840588F09F5798F0B92F9927B75146
:1009E000B0F0E1F0660F771F881F991F1AF0BA95D3
:1009F000C9F714C0B13091F00E949E05B1E008958E
:100A00000C949E05672F782F8827B85F39F0B93F7F
:100A1000CCF3869577956795B395D9F73EF4909585
:100A20008095709561957F4F8F4F9F4F0895E89403
:100A300009C097FB3EF490958095709561957F4F26
:100A40008F4F9F4F9923A9F0F92F96E9BB279395D4
:100A5000F695879577956795B795F111F8CFFAF4E4
:100A6000BB0F11F460FF1BC06F5F7F4F8F4F9F4F15
:100A700016C0882311F096E911C0772321F09EE873
:100A8000872F762F05C0662371F096E8862F70E0D9
:100A900060E02AF09A95660F771F881FDAF7880FB3
:100AA0009695879597F9089597F99F6780E870E084
:100AB00060E008959FEF80EC089500240A941616D4
:100AC000170618060906089500240A94121613063C
:100AD000140605060895092E0394000C11F48823CA
:100AE00052F0BB0F40F4BF2B11F460FF04C06F5FE6
:100AF0007F4F8F4F9F4F089557FD9058440F551FBC
:100B000059F05F3F71F04795880F97FB991F61F08F
:100B10009F3F79F087950895121613061406551F06
:100B2000F2CF4695F1DF08C0161617061806991F72
:100B3000F1CF86957105610508940895E894BB2767
:100B400066277727CB0197F908950E94B8050C9482
:100B50006B050E945D0538F00E94640520F0952326
:100B600011F00C9454050C945A0511240C949F0513
:100B70000E947C0570F3959FC1F3950F50E0551FBF
:100B8000629FF001729FBB27F00DB11D639FAA27E2
:100B9000F00DB11DAA1F649F6627B00DA11D661F31
:100BA000829F2227B00DA11D621F739FB00DA11D52
:100BB000621F839FA00D611D221F749F3327A00D0C
:100BC000611D231F849F600D211D822F762F6A2FA8
:100BD00011249F5750409AF0F1F088234AF0EE0F0D
:100BE000FF1FBB1F661F771F881F91505040A9F73A
:100BF0009E3F510580F00C9454050C949F055F3F77
:100C0000E4F3983ED4F3869577956795B795F79575
:100C1000E7959F5FC1F7FE2B880F911D96958795ED
:080C200097F90895F894FFCF45
:00000001FF
